{
	"smart-contract/contracts/smartlc.sol": {
		"DealManagement": {
			"abi": [
				{
					"inputs": [],
					"name": "dealCount",
					"outputs": [
						{
							"internalType": "uint256",
							"name": "",
							"type": "uint256"
						}
					],
					"stateMutability": "view",
					"type": "function"
				},
				{
					"inputs": [
						{
							"internalType": "uint256",
							"name": "",
							"type": "uint256"
						}
					],
					"name": "deals",
					"outputs": [
						{
							"internalType": "uint256",
							"name": "id",
							"type": "uint256"
						},
						{
							"internalType": "address",
							"name": "importer",
							"type": "address"
						},
						{
							"internalType": "address",
							"name": "exporter",
							"type": "address"
						},
						{
							"internalType": "string",
							"name": "goodsDescription",
							"type": "string"
						},
						{
							"internalType": "uint256",
							"name": "amount",
							"type": "uint256"
						},
						{
							"internalType": "string",
							"name": "documentHash",
							"type": "string"
						},
						{
							"internalType": "bool",
							"name": "approved",
							"type": "bool"
						},
						{
							"internalType": "bool",
							"name": "deliveryVerified",
							"type": "bool"
						}
					],
					"stateMutability": "view",
					"type": "function"
				}
			],
			"devdoc": {
				"kind": "dev",
				"methods": {},
				"version": 1
			},
			"evm": {
				"assembly": "    /* \"smart-contract/contracts/smartlc.sol\":1017:2135  contract DealManagement {... */\n  mstore(0x40, 0x80)\n  callvalue\n  dup1\n  iszero\n  tag_1\n  jumpi\n  0x00\n  dup1\n  revert\ntag_1:\n  pop\n  dataSize(sub_0)\n  dup1\n  dataOffset(sub_0)\n  0x00\n  codecopy\n  0x00\n  return\nstop\n\nsub_0: assembly {\n        /* \"smart-contract/contracts/smartlc.sol\":1017:2135  contract DealManagement {... */\n      mstore(0x40, 0x80)\n      callvalue\n      dup1\n      iszero\n      tag_1\n      jumpi\n      0x00\n      dup1\n      revert\n    tag_1:\n      pop\n      jumpi(tag_2, lt(calldatasize, 0x04))\n      shr(0xe0, calldataload(0x00))\n      dup1\n      0x03988f84\n      eq\n      tag_3\n      jumpi\n      dup1\n      0xeadb3c9c\n      eq\n      tag_4\n      jumpi\n    tag_2:\n      0x00\n      dup1\n      revert\n        /* \"smart-contract/contracts/smartlc.sol\":1305:1339  mapping(uint => Deal) public deals */\n    tag_3:\n      tag_5\n      tag_6\n      calldatasize\n      0x04\n      tag_7\n      jump\t// in\n    tag_6:\n      tag_8\n      jump\t// in\n    tag_5:\n      mload(0x40)\n      tag_9\n      swap9\n      swap8\n      swap7\n      swap6\n      swap5\n      swap4\n      swap3\n      swap2\n      swap1\n      tag_10\n      jump\t// in\n    tag_9:\n      mload(0x40)\n      dup1\n      swap2\n      sub\n      swap1\n      return\n        /* \"smart-contract/contracts/smartlc.sol\":1278:1299  uint public dealCount */\n    tag_4:\n      tag_11\n      sload(0x00)\n      dup2\n      jump\n    tag_11:\n      mload(0x40)\n        /* \"#utility.yul\":1642:1667   */\n      swap1\n      dup2\n      mstore\n        /* \"#utility.yul\":1630:1632   */\n      0x20\n        /* \"#utility.yul\":1615:1633   */\n      add\n        /* \"smart-contract/contracts/smartlc.sol\":1278:1299  uint public dealCount */\n      tag_9\n        /* \"#utility.yul\":1496:1673   */\n      jump\n        /* \"smart-contract/contracts/smartlc.sol\":1305:1339  mapping(uint => Deal) public deals */\n    tag_8:\n      0x01\n      0x20\n      dup2\n      swap1\n      mstore\n      0x00\n      swap2\n      dup3\n      mstore\n      0x40\n      swap1\n      swap2\n      keccak256\n      dup1\n      sload\n      swap2\n      dup2\n      add\n      sload\n      0x02\n      dup3\n      add\n      sload\n      0x03\n      dup4\n      add\n      dup1\n      sload\n      sub(shl(0xa0, 0x01), 0x01)\n      swap4\n      dup5\n      and\n      swap5\n      swap3\n      swap1\n      swap4\n      and\n      swap3\n      tag_15\n      swap1\n      tag_16\n      jump\t// in\n    tag_15:\n      dup1\n      0x1f\n      add\n      0x20\n      dup1\n      swap2\n      div\n      mul\n      0x20\n      add\n      mload(0x40)\n      swap1\n      dup2\n      add\n      0x40\n      mstore\n      dup1\n      swap3\n      swap2\n      swap1\n      dup2\n      dup2\n      mstore\n      0x20\n      add\n      dup3\n      dup1\n      sload\n      tag_17\n      swap1\n      tag_16\n      jump\t// in\n    tag_17:\n      dup1\n      iszero\n      tag_18\n      jumpi\n      dup1\n      0x1f\n      lt\n      tag_19\n      jumpi\n      0x0100\n      dup1\n      dup4\n      sload\n      div\n      mul\n      dup4\n      mstore\n      swap2\n      0x20\n      add\n      swap2\n      jump(tag_18)\n    tag_19:\n      dup3\n      add\n      swap2\n      swap1\n      0x00\n      mstore\n      keccak256(0x00, 0x20)\n      swap1\n    tag_20:\n      dup2\n      sload\n      dup2\n      mstore\n      swap1\n      0x01\n      add\n      swap1\n      0x20\n      add\n      dup1\n      dup4\n      gt\n      tag_20\n      jumpi\n      dup3\n      swap1\n      sub\n      0x1f\n      and\n      dup3\n      add\n      swap2\n    tag_18:\n      pop\n      pop\n      pop\n      pop\n      pop\n      swap1\n      dup1\n      0x04\n      add\n      sload\n      swap1\n      dup1\n      0x05\n      add\n      dup1\n      sload\n      tag_21\n      swap1\n      tag_16\n      jump\t// in\n    tag_21:\n      dup1\n      0x1f\n      add\n      0x20\n      dup1\n      swap2\n      div\n      mul\n      0x20\n      add\n      mload(0x40)\n      swap1\n      dup2\n      add\n      0x40\n      mstore\n      dup1\n      swap3\n      swap2\n      swap1\n      dup2\n      dup2\n      mstore\n      0x20\n      add\n      dup3\n      dup1\n      sload\n      tag_22\n      swap1\n      tag_16\n      jump\t// in\n    tag_22:\n      dup1\n      iszero\n      tag_23\n      jumpi\n      dup1\n      0x1f\n      lt\n      tag_24\n      jumpi\n      0x0100\n      dup1\n      dup4\n      sload\n      div\n      mul\n      dup4\n      mstore\n      swap2\n      0x20\n      add\n      swap2\n      jump(tag_23)\n    tag_24:\n      dup3\n      add\n      swap2\n      swap1\n      0x00\n      mstore\n      keccak256(0x00, 0x20)\n      swap1\n    tag_25:\n      dup2\n      sload\n      dup2\n      mstore\n      swap1\n      0x01\n      add\n      swap1\n      0x20\n      add\n      dup1\n      dup4\n      gt\n      tag_25\n      jumpi\n      dup3\n      swap1\n      sub\n      0x1f\n      and\n      dup3\n      add\n      swap2\n    tag_23:\n      pop\n      pop\n      pop\n      0x06\n      swap1\n      swap4\n      add\n      sload\n      swap2\n      swap3\n      pop\n      pop\n      0xff\n      dup1\n      dup3\n      and\n      swap2\n      0x0100\n      swap1\n      div\n      and\n      dup9\n      jump\t// out\n        /* \"#utility.yul\":14:194   */\n    tag_7:\n        /* \"#utility.yul\":73:79   */\n      0x00\n        /* \"#utility.yul\":126:128   */\n      0x20\n        /* \"#utility.yul\":114:123   */\n      dup3\n        /* \"#utility.yul\":105:112   */\n      dup5\n        /* \"#utility.yul\":101:124   */\n      sub\n        /* \"#utility.yul\":97:129   */\n      slt\n        /* \"#utility.yul\":94:146   */\n      iszero\n      tag_29\n      jumpi\n        /* \"#utility.yul\":142:143   */\n      0x00\n        /* \"#utility.yul\":139:140   */\n      dup1\n        /* \"#utility.yul\":132:144   */\n      revert\n        /* \"#utility.yul\":94:146   */\n    tag_29:\n      pop\n        /* \"#utility.yul\":165:188   */\n      calldataload\n      swap2\n        /* \"#utility.yul\":14:194   */\n      swap1\n      pop\n      jump\t// out\n        /* \"#utility.yul\":199:599   */\n    tag_26:\n        /* \"#utility.yul\":241:244   */\n      0x00\n        /* \"#utility.yul\":279:284   */\n      dup2\n        /* \"#utility.yul\":273:285   */\n      mload\n        /* \"#utility.yul\":306:312   */\n      dup1\n        /* \"#utility.yul\":301:304   */\n      dup5\n        /* \"#utility.yul\":294:313   */\n      mstore\n        /* \"#utility.yul\":331:332   */\n      0x00\n        /* \"#utility.yul\":341:480   */\n    tag_31:\n        /* \"#utility.yul\":355:361   */\n      dup2\n        /* \"#utility.yul\":352:353   */\n      dup2\n        /* \"#utility.yul\":349:362   */\n      lt\n        /* \"#utility.yul\":341:480   */\n      iszero\n      tag_33\n      jumpi\n        /* \"#utility.yul\":463:467   */\n      0x20\n        /* \"#utility.yul\":448:461   */\n      dup2\n      dup6\n      add\n        /* \"#utility.yul\":444:468   */\n      dup2\n      add\n        /* \"#utility.yul\":438:469   */\n      mload\n        /* \"#utility.yul\":418:429   */\n      dup7\n      dup4\n      add\n        /* \"#utility.yul\":414:436   */\n      dup3\n      add\n        /* \"#utility.yul\":407:470   */\n      mstore\n        /* \"#utility.yul\":370:382   */\n      add\n        /* \"#utility.yul\":341:480   */\n      jump(tag_31)\n    tag_33:\n        /* \"#utility.yul\":345:348   */\n      pop\n        /* \"#utility.yul\":525:526   */\n      0x00\n        /* \"#utility.yul\":518:522   */\n      0x20\n        /* \"#utility.yul\":509:515   */\n      dup3\n        /* \"#utility.yul\":504:507   */\n      dup7\n        /* \"#utility.yul\":500:516   */\n      add\n        /* \"#utility.yul\":496:523   */\n      add\n        /* \"#utility.yul\":489:527   */\n      mstore\n        /* \"#utility.yul\":588:592   */\n      0x20\n        /* \"#utility.yul\":581:583   */\n      0x1f\n        /* \"#utility.yul\":577:584   */\n      not\n        /* \"#utility.yul\":572:574   */\n      0x1f\n        /* \"#utility.yul\":564:570   */\n      dup4\n        /* \"#utility.yul\":560:575   */\n      add\n        /* \"#utility.yul\":556:585   */\n      and\n        /* \"#utility.yul\":551:554   */\n      dup6\n        /* \"#utility.yul\":547:586   */\n      add\n        /* \"#utility.yul\":543:593   */\n      add\n        /* \"#utility.yul\":536:593   */\n      swap2\n      pop\n      pop\n        /* \"#utility.yul\":199:599   */\n      swap3\n      swap2\n      pop\n      pop\n      jump\t// out\n        /* \"#utility.yul\":604:1491   */\n    tag_10:\n        /* \"#utility.yul\":939:964   */\n      dup9\n      dup2\n      mstore\n      sub(shl(0xa0, 0x01), 0x01)\n        /* \"#utility.yul\":1000:1032   */\n      dup9\n      dup2\n      and\n        /* \"#utility.yul\":995:997   */\n      0x20\n        /* \"#utility.yul\":980:998   */\n      dup4\n      add\n        /* \"#utility.yul\":973:1033   */\n      mstore\n        /* \"#utility.yul\":1069:1101   */\n      dup8\n      and\n        /* \"#utility.yul\":1064:1066   */\n      0x40\n        /* \"#utility.yul\":1049:1067   */\n      dup3\n      add\n        /* \"#utility.yul\":1042:1102   */\n      mstore\n        /* \"#utility.yul\":1138:1141   */\n      0x0100\n        /* \"#utility.yul\":1133:1135   */\n      0x60\n        /* \"#utility.yul\":1118:1136   */\n      dup3\n      add\n        /* \"#utility.yul\":1111:1142   */\n      dup2\n      swap1\n      mstore\n      0x00\n      swap1\n        /* \"#utility.yul\":1165:1211   */\n      tag_35\n      swap1\n        /* \"#utility.yul\":1191:1210   */\n      dup4\n      add\n        /* \"#utility.yul\":1183:1189   */\n      dup9\n        /* \"#utility.yul\":1165:1211   */\n      tag_26\n      jump\t// in\n    tag_35:\n        /* \"#utility.yul\":1248:1254   */\n      dup7\n        /* \"#utility.yul\":1242:1245   */\n      0x80\n        /* \"#utility.yul\":1231:1240   */\n      dup5\n        /* \"#utility.yul\":1227:1246   */\n      add\n        /* \"#utility.yul\":1220:1255   */\n      mstore\n        /* \"#utility.yul\":1304:1313   */\n      dup3\n        /* \"#utility.yul\":1296:1302   */\n      dup2\n        /* \"#utility.yul\":1292:1314   */\n      sub\n        /* \"#utility.yul\":1286:1289   */\n      0xa0\n        /* \"#utility.yul\":1275:1284   */\n      dup5\n        /* \"#utility.yul\":1271:1290   */\n      add\n        /* \"#utility.yul\":1264:1315   */\n      mstore\n        /* \"#utility.yul\":1332:1365   */\n      tag_36\n        /* \"#utility.yul\":1358:1364   */\n      dup2\n        /* \"#utility.yul\":1350:1356   */\n      dup8\n        /* \"#utility.yul\":1332:1365   */\n      tag_26\n      jump\t// in\n    tag_36:\n        /* \"#utility.yul\":1409:1423   */\n      swap5\n      iszero\n        /* \"#utility.yul\":1402:1424   */\n      iszero\n        /* \"#utility.yul\":1396:1399   */\n      0xc0\n        /* \"#utility.yul\":1381:1400   */\n      dup5\n      add\n        /* \"#utility.yul\":1374:1425   */\n      mstore\n      pop\n      pop\n        /* \"#utility.yul\":1469:1483   */\n      swap1\n      iszero\n        /* \"#utility.yul\":1462:1484   */\n      iszero\n        /* \"#utility.yul\":1456:1459   */\n      0xe0\n        /* \"#utility.yul\":1441:1460   */\n      swap1\n      swap2\n      add\n        /* \"#utility.yul\":1434:1485   */\n      mstore\n        /* \"#utility.yul\":1324:1365   */\n      swap7\n        /* \"#utility.yul\":604:1491   */\n      swap6\n      pop\n      pop\n      pop\n      pop\n      pop\n      pop\n      jump\t// out\n        /* \"#utility.yul\":1678:2058   */\n    tag_16:\n        /* \"#utility.yul\":1757:1758   */\n      0x01\n        /* \"#utility.yul\":1753:1765   */\n      dup2\n      dup2\n      shr\n      swap1\n        /* \"#utility.yul\":1800:1812   */\n      dup3\n      and\n      dup1\n        /* \"#utility.yul\":1821:1882   */\n      tag_39\n      jumpi\n        /* \"#utility.yul\":1875:1879   */\n      0x7f\n        /* \"#utility.yul\":1867:1873   */\n      dup3\n        /* \"#utility.yul\":1863:1880   */\n      and\n        /* \"#utility.yul\":1853:1880   */\n      swap2\n      pop\n        /* \"#utility.yul\":1821:1882   */\n    tag_39:\n        /* \"#utility.yul\":1928:1930   */\n      0x20\n        /* \"#utility.yul\":1920:1926   */\n      dup3\n        /* \"#utility.yul\":1917:1931   */\n      lt\n        /* \"#utility.yul\":1897:1915   */\n      dup2\n        /* \"#utility.yul\":1894:1932   */\n      sub\n        /* \"#utility.yul\":1891:2052   */\n      tag_40\n      jumpi\n        /* \"#utility.yul\":1974:1984   */\n      0x4e487b71\n        /* \"#utility.yul\":1969:1972   */\n      0xe0\n        /* \"#utility.yul\":1965:1985   */\n      shl\n        /* \"#utility.yul\":1962:1963   */\n      0x00\n        /* \"#utility.yul\":1955:1986   */\n      mstore\n        /* \"#utility.yul\":2009:2013   */\n      0x22\n        /* \"#utility.yul\":2006:2007   */\n      0x04\n        /* \"#utility.yul\":1999:2014   */\n      mstore\n        /* \"#utility.yul\":2037:2041   */\n      0x24\n        /* \"#utility.yul\":2034:2035   */\n      0x00\n        /* \"#utility.yul\":2027:2042   */\n      revert\n        /* \"#utility.yul\":1891:2052   */\n    tag_40:\n      pop\n        /* \"#utility.yul\":1678:2058   */\n      swap2\n      swap1\n      pop\n      jump\t// out\n\n    auxdata: 0xa2646970667358221220aaa3fc0d2b645405f466ea536200a859bf0274ba933fc9731a3820bc1f744dd064736f6c634300081e0033\n}\n",
				"bytecode": {
					"linkReferences": {},
					"object": "6080604052348015600f57600080fd5b5061031e8061001f6000396000f3fe608060405234801561001057600080fd5b50600436106100365760003560e01c806303988f841461003b578063eadb3c9c1461006b575b600080fd5b61004e6100493660046101e7565b610082565b604051610062989796959493929190610246565b60405180910390f35b61007460005481565b604051908152602001610062565b600160208190526000918252604090912080549181015460028201546003830180546001600160a01b039384169492909316926100be906102ae565b80601f01602080910402602001604051908101604052809291908181526020018280546100ea906102ae565b80156101375780601f1061010c57610100808354040283529160200191610137565b820191906000526020600020905b81548152906001019060200180831161011a57829003601f168201915b505050505090806004015490806005018054610152906102ae565b80601f016020809104026020016040519081016040528092919081815260200182805461017e906102ae565b80156101cb5780601f106101a0576101008083540402835291602001916101cb565b820191906000526020600020905b8154815290600101906020018083116101ae57829003601f168201915b5050506006909301549192505060ff8082169161010090041688565b6000602082840312156101f957600080fd5b5035919050565b6000815180845260005b818110156102265760208185018101518683018201520161020a565b506000602082860101526020601f19601f83011685010191505092915050565b8881526001600160a01b038881166020830152871660408201526101006060820181905260009061027990830188610200565b86608084015282810360a08401526102918187610200565b94151560c0840152505090151560e0909101529695505050505050565b600181811c908216806102c257607f821691505b6020821081036102e257634e487b7160e01b600052602260045260246000fd5b5091905056fea2646970667358221220aaa3fc0d2b645405f466ea536200a859bf0274ba933fc9731a3820bc1f744dd064736f6c634300081e0033",
					"opcodes": "PUSH1 0x80 PUSH1 0x40 MSTORE CALLVALUE DUP1 ISZERO PUSH1 0xF JUMPI PUSH1 0x0 DUP1 REVERT JUMPDEST POP PUSH2 0x31E DUP1 PUSH2 0x1F PUSH1 0x0 CODECOPY PUSH1 0x0 RETURN INVALID PUSH1 0x80 PUSH1 0x40 MSTORE CALLVALUE DUP1 ISZERO PUSH2 0x10 JUMPI PUSH1 0x0 DUP1 REVERT JUMPDEST POP PUSH1 0x4 CALLDATASIZE LT PUSH2 0x36 JUMPI PUSH1 0x0 CALLDATALOAD PUSH1 0xE0 SHR DUP1 PUSH4 0x3988F84 EQ PUSH2 0x3B JUMPI DUP1 PUSH4 0xEADB3C9C EQ PUSH2 0x6B JUMPI JUMPDEST PUSH1 0x0 DUP1 REVERT JUMPDEST PUSH2 0x4E PUSH2 0x49 CALLDATASIZE PUSH1 0x4 PUSH2 0x1E7 JUMP JUMPDEST PUSH2 0x82 JUMP JUMPDEST PUSH1 0x40 MLOAD PUSH2 0x62 SWAP9 SWAP8 SWAP7 SWAP6 SWAP5 SWAP4 SWAP3 SWAP2 SWAP1 PUSH2 0x246 JUMP JUMPDEST PUSH1 0x40 MLOAD DUP1 SWAP2 SUB SWAP1 RETURN JUMPDEST PUSH2 0x74 PUSH1 0x0 SLOAD DUP2 JUMP JUMPDEST PUSH1 0x40 MLOAD SWAP1 DUP2 MSTORE PUSH1 0x20 ADD PUSH2 0x62 JUMP JUMPDEST PUSH1 0x1 PUSH1 0x20 DUP2 SWAP1 MSTORE PUSH1 0x0 SWAP2 DUP3 MSTORE PUSH1 0x40 SWAP1 SWAP2 KECCAK256 DUP1 SLOAD SWAP2 DUP2 ADD SLOAD PUSH1 0x2 DUP3 ADD SLOAD PUSH1 0x3 DUP4 ADD DUP1 SLOAD PUSH1 0x1 PUSH1 0x1 PUSH1 0xA0 SHL SUB SWAP4 DUP5 AND SWAP5 SWAP3 SWAP1 SWAP4 AND SWAP3 PUSH2 0xBE SWAP1 PUSH2 0x2AE JUMP JUMPDEST DUP1 PUSH1 0x1F ADD PUSH1 0x20 DUP1 SWAP2 DIV MUL PUSH1 0x20 ADD PUSH1 0x40 MLOAD SWAP1 DUP2 ADD PUSH1 0x40 MSTORE DUP1 SWAP3 SWAP2 SWAP1 DUP2 DUP2 MSTORE PUSH1 0x20 ADD DUP3 DUP1 SLOAD PUSH2 0xEA SWAP1 PUSH2 0x2AE JUMP JUMPDEST DUP1 ISZERO PUSH2 0x137 JUMPI DUP1 PUSH1 0x1F LT PUSH2 0x10C JUMPI PUSH2 0x100 DUP1 DUP4 SLOAD DIV MUL DUP4 MSTORE SWAP2 PUSH1 0x20 ADD SWAP2 PUSH2 0x137 JUMP JUMPDEST DUP3 ADD SWAP2 SWAP1 PUSH1 0x0 MSTORE PUSH1 0x20 PUSH1 0x0 KECCAK256 SWAP1 JUMPDEST DUP2 SLOAD DUP2 MSTORE SWAP1 PUSH1 0x1 ADD SWAP1 PUSH1 0x20 ADD DUP1 DUP4 GT PUSH2 0x11A JUMPI DUP3 SWAP1 SUB PUSH1 0x1F AND DUP3 ADD SWAP2 JUMPDEST POP POP POP POP POP SWAP1 DUP1 PUSH1 0x4 ADD SLOAD SWAP1 DUP1 PUSH1 0x5 ADD DUP1 SLOAD PUSH2 0x152 SWAP1 PUSH2 0x2AE JUMP JUMPDEST DUP1 PUSH1 0x1F ADD PUSH1 0x20 DUP1 SWAP2 DIV MUL PUSH1 0x20 ADD PUSH1 0x40 MLOAD SWAP1 DUP2 ADD PUSH1 0x40 MSTORE DUP1 SWAP3 SWAP2 SWAP1 DUP2 DUP2 MSTORE PUSH1 0x20 ADD DUP3 DUP1 SLOAD PUSH2 0x17E SWAP1 PUSH2 0x2AE JUMP JUMPDEST DUP1 ISZERO PUSH2 0x1CB JUMPI DUP1 PUSH1 0x1F LT PUSH2 0x1A0 JUMPI PUSH2 0x100 DUP1 DUP4 SLOAD DIV MUL DUP4 MSTORE SWAP2 PUSH1 0x20 ADD SWAP2 PUSH2 0x1CB JUMP JUMPDEST DUP3 ADD SWAP2 SWAP1 PUSH1 0x0 MSTORE PUSH1 0x20 PUSH1 0x0 KECCAK256 SWAP1 JUMPDEST DUP2 SLOAD DUP2 MSTORE SWAP1 PUSH1 0x1 ADD SWAP1 PUSH1 0x20 ADD DUP1 DUP4 GT PUSH2 0x1AE JUMPI DUP3 SWAP1 SUB PUSH1 0x1F AND DUP3 ADD SWAP2 JUMPDEST POP POP POP PUSH1 0x6 SWAP1 SWAP4 ADD SLOAD SWAP2 SWAP3 POP POP PUSH1 0xFF DUP1 DUP3 AND SWAP2 PUSH2 0x100 SWAP1 DIV AND DUP9 JUMP JUMPDEST PUSH1 0x0 PUSH1 0x20 DUP3 DUP5 SUB SLT ISZERO PUSH2 0x1F9 JUMPI PUSH1 0x0 DUP1 REVERT JUMPDEST POP CALLDATALOAD SWAP2 SWAP1 POP JUMP JUMPDEST PUSH1 0x0 DUP2 MLOAD DUP1 DUP5 MSTORE PUSH1 0x0 JUMPDEST DUP2 DUP2 LT ISZERO PUSH2 0x226 JUMPI PUSH1 0x20 DUP2 DUP6 ADD DUP2 ADD MLOAD DUP7 DUP4 ADD DUP3 ADD MSTORE ADD PUSH2 0x20A JUMP JUMPDEST POP PUSH1 0x0 PUSH1 0x20 DUP3 DUP7 ADD ADD MSTORE PUSH1 0x20 PUSH1 0x1F NOT PUSH1 0x1F DUP4 ADD AND DUP6 ADD ADD SWAP2 POP POP SWAP3 SWAP2 POP POP JUMP JUMPDEST DUP9 DUP2 MSTORE PUSH1 0x1 PUSH1 0x1 PUSH1 0xA0 SHL SUB DUP9 DUP2 AND PUSH1 0x20 DUP4 ADD MSTORE DUP8 AND PUSH1 0x40 DUP3 ADD MSTORE PUSH2 0x100 PUSH1 0x60 DUP3 ADD DUP2 SWAP1 MSTORE PUSH1 0x0 SWAP1 PUSH2 0x279 SWAP1 DUP4 ADD DUP9 PUSH2 0x200 JUMP JUMPDEST DUP7 PUSH1 0x80 DUP5 ADD MSTORE DUP3 DUP2 SUB PUSH1 0xA0 DUP5 ADD MSTORE PUSH2 0x291 DUP2 DUP8 PUSH2 0x200 JUMP JUMPDEST SWAP5 ISZERO ISZERO PUSH1 0xC0 DUP5 ADD MSTORE POP POP SWAP1 ISZERO ISZERO PUSH1 0xE0 SWAP1 SWAP2 ADD MSTORE SWAP7 SWAP6 POP POP POP POP POP POP JUMP JUMPDEST PUSH1 0x1 DUP2 DUP2 SHR SWAP1 DUP3 AND DUP1 PUSH2 0x2C2 JUMPI PUSH1 0x7F DUP3 AND SWAP2 POP JUMPDEST PUSH1 0x20 DUP3 LT DUP2 SUB PUSH2 0x2E2 JUMPI PUSH4 0x4E487B71 PUSH1 0xE0 SHL PUSH1 0x0 MSTORE PUSH1 0x22 PUSH1 0x4 MSTORE PUSH1 0x24 PUSH1 0x0 REVERT JUMPDEST POP SWAP2 SWAP1 POP JUMP INVALID LOG2 PUSH5 0x6970667358 0x22 SLT KECCAK256 0xAA LOG3 0xFC 0xD 0x2B PUSH5 0x5405F466EA MSTORE8 PUSH3 0xA859 0xBF MUL PUSH21 0xBA933FC9731A3820BC1F744DD064736F6C63430008 0x1E STOP CALLER "
				},
				"gasEstimates": {
					"creation": {
						"codeDepositCost": "159600",
						"executionCost": "202",
						"totalCost": "159802"
					},
					"external": {
						"dealCount()": "2295",
						"deals(uint256)": "infinite"
					},
					"internal": {
						"approveDeal(uint256)": "infinite",
						"createDeal(address,string memory,uint256)": "infinite",
						"uploadDocument(uint256,string memory,address)": "infinite",
						"verifyDelivery(uint256)": "infinite"
					}
				},
				"methodIdentifiers": {
					"dealCount()": "eadb3c9c",
					"deals(uint256)": "03988f84"
				}
			},
			"storageLayout": {
				"storage": [
					{
						"astId": 110,
						"contract": "smart-contract/contracts/smartlc.sol:DealManagement",
						"label": "dealCount",
						"offset": 0,
						"slot": "0",
						"type": "t_uint256"
					},
					{
						"astId": 115,
						"contract": "smart-contract/contracts/smartlc.sol:DealManagement",
						"label": "deals",
						"offset": 0,
						"slot": "1",
						"type": "t_mapping(t_uint256,t_struct(Deal)108_storage)"
					}
				],
				"types": {
					"t_address": {
						"encoding": "inplace",
						"label": "address",
						"numberOfBytes": "20"
					},
					"t_bool": {
						"encoding": "inplace",
						"label": "bool",
						"numberOfBytes": "1"
					},
					"t_mapping(t_uint256,t_struct(Deal)108_storage)": {
						"encoding": "mapping",
						"key": "t_uint256",
						"label": "mapping(uint256 => struct DealManagement.Deal)",
						"numberOfBytes": "32",
						"value": "t_struct(Deal)108_storage"
					},
					"t_string_storage": {
						"encoding": "bytes",
						"label": "string",
						"numberOfBytes": "32"
					},
					"t_struct(Deal)108_storage": {
						"encoding": "inplace",
						"label": "struct DealManagement.Deal",
						"members": [
							{
								"astId": 93,
								"contract": "smart-contract/contracts/smartlc.sol:DealManagement",
								"label": "id",
								"offset": 0,
								"slot": "0",
								"type": "t_uint256"
							},
							{
								"astId": 95,
								"contract": "smart-contract/contracts/smartlc.sol:DealManagement",
								"label": "importer",
								"offset": 0,
								"slot": "1",
								"type": "t_address"
							},
							{
								"astId": 97,
								"contract": "smart-contract/contracts/smartlc.sol:DealManagement",
								"label": "exporter",
								"offset": 0,
								"slot": "2",
								"type": "t_address"
							},
							{
								"astId": 99,
								"contract": "smart-contract/contracts/smartlc.sol:DealManagement",
								"label": "goodsDescription",
								"offset": 0,
								"slot": "3",
								"type": "t_string_storage"
							},
							{
								"astId": 101,
								"contract": "smart-contract/contracts/smartlc.sol:DealManagement",
								"label": "amount",
								"offset": 0,
								"slot": "4",
								"type": "t_uint256"
							},
							{
								"astId": 103,
								"contract": "smart-contract/contracts/smartlc.sol:DealManagement",
								"label": "documentHash",
								"offset": 0,
								"slot": "5",
								"type": "t_string_storage"
							},
							{
								"astId": 105,
								"contract": "smart-contract/contracts/smartlc.sol:DealManagement",
								"label": "approved",
								"offset": 0,
								"slot": "6",
								"type": "t_bool"
							},
							{
								"astId": 107,
								"contract": "smart-contract/contracts/smartlc.sol:DealManagement",
								"label": "deliveryVerified",
								"offset": 1,
								"slot": "6",
								"type": "t_bool"
							}
						],
						"numberOfBytes": "224"
					},
					"t_uint256": {
						"encoding": "inplace",
						"label": "uint256",
						"numberOfBytes": "32"
					}
				}
			},
			"userdoc": {
				"kind": "user",
				"methods": {},
				"version": 1
			}
		}
	}
}