{
	"smart-contract/contracts/smartlc.sol": {
		"EscrowPayment": {
			"abi": [
				{
					"inputs": [
						{
							"internalType": "uint256",
							"name": "",
							"type": "uint256"
						}
					],
					"name": "payments",
					"outputs": [
						{
							"internalType": "uint256",
							"name": "dealId",
							"type": "uint256"
						},
						{
							"internalType": "address",
							"name": "payer",
							"type": "address"
						},
						{
							"internalType": "address",
							"name": "payee",
							"type": "address"
						},
						{
							"internalType": "uint256",
							"name": "amount",
							"type": "uint256"
						},
						{
							"internalType": "bool",
							"name": "released",
							"type": "bool"
						},
						{
							"internalType": "bool",
							"name": "locked",
							"type": "bool"
						}
					],
					"stateMutability": "view",
					"type": "function"
				}
			],
			"devdoc": {
				"kind": "dev",
				"methods": {},
				"version": 1
			},
			"evm": {
				"assembly": "    /* \"smart-contract/contracts/smartlc.sol\":2163:2692  contract EscrowPayment {... */\n  mstore(0x40, 0x80)\n  callvalue\n  dup1\n  iszero\n  tag_1\n  jumpi\n  0x00\n  dup1\n  revert\ntag_1:\n  pop\n  dataSize(sub_0)\n  dup1\n  dataOffset(sub_0)\n  0x00\n  codecopy\n  0x00\n  return\nstop\n\nsub_0: assembly {\n        /* \"smart-contract/contracts/smartlc.sol\":2163:2692  contract EscrowPayment {... */\n      mstore(0x40, 0x80)\n      callvalue\n      dup1\n      iszero\n      tag_1\n      jumpi\n      0x00\n      dup1\n      revert\n    tag_1:\n      pop\n      jumpi(tag_2, lt(calldatasize, 0x04))\n      shr(0xe0, calldataload(0x00))\n      dup1\n      0x87d81789\n      eq\n      tag_3\n      jumpi\n    tag_2:\n      0x00\n      dup1\n      revert\n        /* \"smart-contract/contracts/smartlc.sol\":2352:2392  mapping(uint => Payment) public payments */\n    tag_3:\n      tag_4\n      tag_5\n      calldatasize\n      0x04\n      tag_6\n      jump\t// in\n    tag_5:\n      0x00\n      0x20\n      dup2\n      swap1\n      mstore\n      swap1\n      dup2\n      mstore\n      0x40\n      swap1\n      keccak256\n      dup1\n      sload\n      0x01\n      dup3\n      add\n      sload\n      0x02\n      dup4\n      add\n      sload\n      0x03\n      dup5\n      add\n      sload\n      0x04\n      swap1\n      swap5\n      add\n      sload\n      swap3\n      swap4\n      sub(shl(0xa0, 0x01), 0x01)\n      swap3\n      dup4\n      and\n      swap4\n      swap3\n      swap1\n      swap2\n      and\n      swap2\n      0xff\n      dup1\n      dup3\n      and\n      swap2\n      0x0100\n      swap1\n      div\n      and\n      dup7\n      jump\n    tag_4:\n      0x40\n      dup1\n      mload\n        /* \"#utility.yul\":474:499   */\n      swap7\n      dup8\n      mstore\n      sub(shl(0xa0, 0x01), 0x01)\n        /* \"#utility.yul\":535:567   */\n      swap6\n      dup7\n      and\n        /* \"#utility.yul\":530:532   */\n      0x20\n        /* \"#utility.yul\":515:533   */\n      dup9\n      add\n        /* \"#utility.yul\":508:568   */\n      mstore\n        /* \"#utility.yul\":604:636   */\n      swap4\n      swap1\n      swap5\n      and\n        /* \"#utility.yul\":584:602   */\n      swap3\n      dup6\n      add\n        /* \"#utility.yul\":577:637   */\n      swap3\n      swap1\n      swap3\n      mstore\n        /* \"#utility.yul\":668:670   */\n      0x60\n        /* \"#utility.yul\":653:671   */\n      dup5\n      add\n        /* \"#utility.yul\":646:680   */\n      mstore\n        /* \"#utility.yul\":724:738   */\n      iszero\n        /* \"#utility.yul\":717:739   */\n      iszero\n        /* \"#utility.yul\":711:714   */\n      0x80\n        /* \"#utility.yul\":696:715   */\n      dup4\n      add\n        /* \"#utility.yul\":689:740   */\n      mstore\n        /* \"#utility.yul\":784:798   */\n      iszero\n        /* \"#utility.yul\":777:799   */\n      iszero\n        /* \"#utility.yul\":555:558   */\n      0xa0\n        /* \"#utility.yul\":756:775   */\n      dup3\n      add\n        /* \"#utility.yul\":749:800   */\n      mstore\n        /* \"#utility.yul\":461:464   */\n      0xc0\n        /* \"#utility.yul\":446:465   */\n      add\n        /* \"smart-contract/contracts/smartlc.sol\":2352:2392  mapping(uint => Payment) public payments */\n      mload(0x40)\n      dup1\n      swap2\n      sub\n      swap1\n      return\n        /* \"#utility.yul\":14:194   */\n    tag_6:\n        /* \"#utility.yul\":73:79   */\n      0x00\n        /* \"#utility.yul\":126:128   */\n      0x20\n        /* \"#utility.yul\":114:123   */\n      dup3\n        /* \"#utility.yul\":105:112   */\n      dup5\n        /* \"#utility.yul\":101:124   */\n      sub\n        /* \"#utility.yul\":97:129   */\n      slt\n        /* \"#utility.yul\":94:146   */\n      iszero\n      tag_12\n      jumpi\n        /* \"#utility.yul\":142:143   */\n      0x00\n        /* \"#utility.yul\":139:140   */\n      dup1\n        /* \"#utility.yul\":132:144   */\n      revert\n        /* \"#utility.yul\":94:146   */\n    tag_12:\n      pop\n        /* \"#utility.yul\":165:188   */\n      calldataload\n      swap2\n        /* \"#utility.yul\":14:194   */\n      swap1\n      pop\n      jump\t// out\n\n    auxdata: 0xa2646970667358221220d55ba2e4985db75341d54edca240f74347173ebb9176ba61ddcad80ff5a566b264736f6c634300081e0033\n}\n",
				"bytecode": {
					"linkReferences": {},
					"object": "6080604052348015600f57600080fd5b5061010e8061001f6000396000f3fe6080604052348015600f57600080fd5b506004361060285760003560e01c806387d8178914602d575b600080fd5b607f603836600460c0565b6000602081905290815260409020805460018201546002830154600384015460049094015492936001600160a01b0392831693929091169160ff8082169161010090041686565b604080519687526001600160a01b0395861660208801529390941692850192909252606084015215156080830152151560a082015260c00160405180910390f35b60006020828403121560d157600080fd5b503591905056fea2646970667358221220d55ba2e4985db75341d54edca240f74347173ebb9176ba61ddcad80ff5a566b264736f6c634300081e0033",
					"opcodes": "PUSH1 0x80 PUSH1 0x40 MSTORE CALLVALUE DUP1 ISZERO PUSH1 0xF JUMPI PUSH1 0x0 DUP1 REVERT JUMPDEST POP PUSH2 0x10E DUP1 PUSH2 0x1F PUSH1 0x0 CODECOPY PUSH1 0x0 RETURN INVALID PUSH1 0x80 PUSH1 0x40 MSTORE CALLVALUE DUP1 ISZERO PUSH1 0xF JUMPI PUSH1 0x0 DUP1 REVERT JUMPDEST POP PUSH1 0x4 CALLDATASIZE LT PUSH1 0x28 JUMPI PUSH1 0x0 CALLDATALOAD PUSH1 0xE0 SHR DUP1 PUSH4 0x87D81789 EQ PUSH1 0x2D JUMPI JUMPDEST PUSH1 0x0 DUP1 REVERT JUMPDEST PUSH1 0x7F PUSH1 0x38 CALLDATASIZE PUSH1 0x4 PUSH1 0xC0 JUMP JUMPDEST PUSH1 0x0 PUSH1 0x20 DUP2 SWAP1 MSTORE SWAP1 DUP2 MSTORE PUSH1 0x40 SWAP1 KECCAK256 DUP1 SLOAD PUSH1 0x1 DUP3 ADD SLOAD PUSH1 0x2 DUP4 ADD SLOAD PUSH1 0x3 DUP5 ADD SLOAD PUSH1 0x4 SWAP1 SWAP5 ADD SLOAD SWAP3 SWAP4 PUSH1 0x1 PUSH1 0x1 PUSH1 0xA0 SHL SUB SWAP3 DUP4 AND SWAP4 SWAP3 SWAP1 SWAP2 AND SWAP2 PUSH1 0xFF DUP1 DUP3 AND SWAP2 PUSH2 0x100 SWAP1 DIV AND DUP7 JUMP JUMPDEST PUSH1 0x40 DUP1 MLOAD SWAP7 DUP8 MSTORE PUSH1 0x1 PUSH1 0x1 PUSH1 0xA0 SHL SUB SWAP6 DUP7 AND PUSH1 0x20 DUP9 ADD MSTORE SWAP4 SWAP1 SWAP5 AND SWAP3 DUP6 ADD SWAP3 SWAP1 SWAP3 MSTORE PUSH1 0x60 DUP5 ADD MSTORE ISZERO ISZERO PUSH1 0x80 DUP4 ADD MSTORE ISZERO ISZERO PUSH1 0xA0 DUP3 ADD MSTORE PUSH1 0xC0 ADD PUSH1 0x40 MLOAD DUP1 SWAP2 SUB SWAP1 RETURN JUMPDEST PUSH1 0x0 PUSH1 0x20 DUP3 DUP5 SUB SLT ISZERO PUSH1 0xD1 JUMPI PUSH1 0x0 DUP1 REVERT JUMPDEST POP CALLDATALOAD SWAP2 SWAP1 POP JUMP INVALID LOG2 PUSH5 0x6970667358 0x22 SLT KECCAK256 0xD5 JUMPDEST LOG2 RETF SWAP9 TSTORE 0xB7 MSTORE8 COINBASE 0xD5 0x4E 0xDC LOG2 BLOCKHASH 0xF7 NUMBER SELFBALANCE OR RETURNDATACOPY 0xBB SWAP2 PUSH23 0xBA61DDCAD80FF5A566B264736F6C634300081E00330000 "
				},
				"gasEstimates": {
					"creation": {
						"codeDepositCost": "54000",
						"executionCost": "105",
						"totalCost": "54105"
					},
					"external": {
						"payments(uint256)": "11061"
					},
					"internal": {
						"deposit(uint256,address)": "infinite"
					}
				},
				"methodIdentifiers": {
					"payments(uint256)": "87d81789"
				}
			},
			"storageLayout": {
				"storage": [
					{
						"astId": 241,
						"contract": "smart-contract/contracts/smartlc.sol:EscrowPayment",
						"label": "payments",
						"offset": 0,
						"slot": "0",
						"type": "t_mapping(t_uint256,t_struct(Payment)236_storage)"
					}
				],
				"types": {
					"t_address": {
						"encoding": "inplace",
						"label": "address",
						"numberOfBytes": "20"
					},
					"t_bool": {
						"encoding": "inplace",
						"label": "bool",
						"numberOfBytes": "1"
					},
					"t_mapping(t_uint256,t_struct(Payment)236_storage)": {
						"encoding": "mapping",
						"key": "t_uint256",
						"label": "mapping(uint256 => struct EscrowPayment.Payment)",
						"numberOfBytes": "32",
						"value": "t_struct(Payment)236_storage"
					},
					"t_struct(Payment)236_storage": {
						"encoding": "inplace",
						"label": "struct EscrowPayment.Payment",
						"members": [
							{
								"astId": 225,
								"contract": "smart-contract/contracts/smartlc.sol:EscrowPayment",
								"label": "dealId",
								"offset": 0,
								"slot": "0",
								"type": "t_uint256"
							},
							{
								"astId": 227,
								"contract": "smart-contract/contracts/smartlc.sol:EscrowPayment",
								"label": "payer",
								"offset": 0,
								"slot": "1",
								"type": "t_address"
							},
							{
								"astId": 229,
								"contract": "smart-contract/contracts/smartlc.sol:EscrowPayment",
								"label": "payee",
								"offset": 0,
								"slot": "2",
								"type": "t_address"
							},
							{
								"astId": 231,
								"contract": "smart-contract/contracts/smartlc.sol:EscrowPayment",
								"label": "amount",
								"offset": 0,
								"slot": "3",
								"type": "t_uint256"
							},
							{
								"astId": 233,
								"contract": "smart-contract/contracts/smartlc.sol:EscrowPayment",
								"label": "released",
								"offset": 0,
								"slot": "4",
								"type": "t_bool"
							},
							{
								"astId": 235,
								"contract": "smart-contract/contracts/smartlc.sol:EscrowPayment",
								"label": "locked",
								"offset": 1,
								"slot": "4",
								"type": "t_bool"
							}
						],
						"numberOfBytes": "160"
					},
					"t_uint256": {
						"encoding": "inplace",
						"label": "uint256",
						"numberOfBytes": "32"
					}
				}
			},
			"userdoc": {
				"kind": "user",
				"methods": {},
				"version": 1
			}
		}
	}
}