{
	"data": {
		"bytecode": {
			"linkReferences": {},
			"object": "6080604052348015600f57600080fd5b5060c580601d6000396000f3fe6080604052348015600f57600080fd5b506004361060285760003560e01c80638e306bed14602d575b600080fd5b604d60383660046061565b60006020819052908152604090205460ff1681565b604051901515815260200160405180910390f35b600060208284031215607257600080fd5b81356001600160a01b0381168114608857600080fd5b939250505056fea26469706673582212206f30141b41c2e6a0c3dba20d505dec85c41bd2a5f8a49e3ecfe061f3f25e6bc764736f6c634300081e0033",
			"opcodes": "PUSH1 0x80 PUSH1 0x40 MSTORE CALLVALUE DUP1 ISZERO PUSH1 0xF JUMPI PUSH1 0x0 DUP1 REVERT JUMPDEST POP PUSH1 0xC5 DUP1 PUSH1 0x1D PUSH1 0x0 CODECOPY PUSH1 0x0 RETURN INVALID PUSH1 0x80 PUSH1 0x40 MSTORE CALLVALUE DUP1 ISZERO PUSH1 0xF JUMPI PUSH1 0x0 DUP1 REVERT JUMPDEST POP PUSH1 0x4 CALLDATASIZE LT PUSH1 0x28 JUMPI PUSH1 0x0 CALLDATALOAD PUSH1 0xE0 SHR DUP1 PUSH4 0x8E306BED EQ PUSH1 0x2D JUMPI JUMPDEST PUSH1 0x0 DUP1 REVERT JUMPDEST PUSH1 0x4D PUSH1 0x38 CALLDATASIZE PUSH1 0x4 PUSH1 0x61 JUMP JUMPDEST PUSH1 0x0 PUSH1 0x20 DUP2 SWAP1 MSTORE SWAP1 DUP2 MSTORE PUSH1 0x40 SWAP1 KECCAK256 SLOAD PUSH1 0xFF AND DUP2 JUMP JUMPDEST PUSH1 0x40 MLOAD SWAP1 ISZERO ISZERO DUP2 MSTORE PUSH1 0x20 ADD PUSH1 0x40 MLOAD DUP1 SWAP2 SUB SWAP1 RETURN JUMPDEST PUSH1 0x0 PUSH1 0x20 DUP3 DUP5 SUB SLT ISZERO PUSH1 0x72 JUMPI PUSH1 0x0 DUP1 REVERT JUMPDEST DUP2 CALLDATALOAD PUSH1 0x1 PUSH1 0x1 PUSH1 0xA0 SHL SUB DUP2 AND DUP2 EQ PUSH1 0x88 JUMPI PUSH1 0x0 DUP1 REVERT JUMPDEST SWAP4 SWAP3 POP POP POP JUMP INVALID LOG2 PUSH5 0x6970667358 0x22 SLT KECCAK256 PUSH16 0x30141B41C2E6A0C3DBA20D505DEC85C4 SHL 0xD2 0xA5 EXTCALL LOG4 SWAP15 RETURNDATACOPY 0xCF RJUMP 0x61F3 CALLCODE MCOPY PUSH12 0xC764736F6C634300081E0033 "
		},
		"gasEstimates": {
			"creation": {
				"codeDepositCost": "39400",
				"executionCost": "93",
				"totalCost": "39493"
			},
			"external": {
				"flaggedUsers(address)": "2465"
			},
			"internal": {
				"flagUser(address)": "infinite",
				"unflagUser(address)": "infinite"
			}
		},
		"methodIdentifiers": {
			"flaggedUsers(address)": "8e306bed"
		}
	},
	"abi": [
		{
			"inputs": [
				{
					"internalType": "address",
					"name": "",
					"type": "address"
				}
			],
			"name": "flaggedUsers",
			"outputs": [
				{
					"internalType": "bool",
					"name": "",
					"type": "bool"
				}
			],
			"stateMutability": "view",
			"type": "function"
		}
	]
}